:100000000C942C020C945D020C945D020C945D0225
:100010000C945D020C945D020C945D020C945D02E4
:100020000C945D020C947C130C947C130C947C1344
:100030000C945D020C945D020C945D020C9406130A
:100040000C945D020C945D020C945D020C945D02B4
:100050000C945D020C945D020C945D020C946C1186
:100060000C945D020C94DC120C94B2120C945D02A0
:100070000C945D020C945D020C945D020C945D0284
:100080000C945D020C945D020C945D020C945D0274
:100090000C9488120C945E120C945D020C94F8136C
:1000A0000C945D020C945D020C945D020C945D0254
:1000B0000C945D020C945D020C945D020C945D0244
:1000C0000C945D020C945D020C945D020C9434124D
:1000D0000C940A120C945D020C94E0110C94B6116D
:1000E0000C945D02036EDB363D9A9999993DABAA5B
:1000F000AA2A3E000000803F084AD73B3BCE016E53
:1001000084BCBFFDC12F3D6C74319ABD56833DDA6E
:100110003D00C77F11BED9E4BB4C3E916BAAAABE7D
:10012000000000803F072C7AA5BA6CC590DA3B939B
:1001300065FC8BBC53F810FD3C5692834DBD879DEA
:100140003AB63DCBC9BF5BBE73DA0FC93F000C9412
:1001500044240C94FA020C944F050C94EB040C9478
:1001600027030C949D240C9419030C944E240C9496
:1001700015030C946B0A0C94DF020C94E4020C94AB
:1001800034040C943D240C942B030C943B040C94E9
:1001900028060C9483240C94AC0A0C9427060C9427
:1001A0009A060C94FE020C940F060C94E5090C942C
:1001B000FA230C94C8040C94F6020C9462240C9458
:1001C0006F240C9469020C94070A0C941C150C946F
:1001D000DF260C94F4090C944B240C94D7040C9453
:1001E00035030C9405030C9455240C9402030C94D1
:1001F00031030C9484060C948F0E0C940B030C9416
:1002000032110C9482040C947C240C94F9040C9408
:100210001D030C946A020C94AB0A0C9490240C9469
:1002200037240C94340A0C9406240C940F030C9479
:100230003B0F0C9423030C949C0500407A10F35A56
:1002400000A0724E18090010A5D4E80000E8764816
:10025000170000E40B54020000CA9A3B000000E1C2
:10026000F505000080969800000040420F00000055
:10027000A08601000000102700000000E803000035
:1002800000006400000000000A00000000000100FF
:10029000000000002C76D888DC674F0823DFC1DF20
:1002A000AE59E1B1B796E5E3E453C63AE651997623
:1002B00096E8E6C28426EB898C9B62ED407C6FFC5D
:1002C000EFBC9C9F40F2BAA56FA5F490055A2AF79F
:1002D0005C936B6CF9676DC11BFCE0E40D47FEF5A8
:1002E00020E6B500D0ED902E030094357705008010
:1002F000841E080000204E0A000000C80C3333336F
:10030000330F986E12831141EF8D2114893BE6550E
:1003100016CFFEE6DB18D1844B381BF77C1D901DF1
:10032000A4BBE424203284725E228100C9F124EC53
:10033000A1E53D2700002100240027002A002D0010
:100340003000330001010000040107010A01000030
:100350000A0B02090C0D0E0807030401000000003F
:10036000000000000000000000000000000000008D
:10037000000000000000000000001211100000004A
:10038000000000000000000000000000000000006D
:1003900000000000000020002300260029002C009F
:1003A0002F003200000100000301060109010000D6
:1003B0002200250028002B002E003100340002010D
:1003C0000000050108010B010505050507050808E2
:1003D0000808020202020A0A0808040404040101CF
:1003E00001010101010103030303030303030407E4
:1003F00007070C0C0C0C0C0C0C0C0202020206067B
:100400000606060606060B0B0B0B0B0B0B0B01026D
:100410001020200808102040102040800201020116
:1004200008040201010204081020408080402010CE
:100430000804020180040201804020100804020127
:10044000080402010102040810204080010204088F
:10045000102040801C15DF2611241FBECFEFD1E2F3
:10046000DEBFCDBF00E00CBF28E0A4EEB2E001C0CB
:100470001D92AF32B207E1F712E0A0E0B2E0EEE980
:10048000F0E600E00BBF02C007900D92A43EB1075A
:10049000D9F712E0CBE2D2E000E006C021970109D3
:1004A000802FFE010E94D32DCA32D10780E00807B9
:1004B000A9F70E9433170C943D300C94000091E092
:1004C00090936204809384041092630410928504D4
:1004D000089508950895CF93DF93EC019A01AB013D
:1004E000E889F98982E08083211581EE380741058A
:1004F000510581F160E079E08DE390E00E94922D5A
:10050000215031094109510956954795379527954D
:10051000EC85FD851082EE85FF852083188EEC89A1
:10052000FD8986E08083EA89FB8980818061808300
:10053000EA89FB89808188608083EA89FB898081E0
:1005400080688083EA89FB8980818F7D8083DF9149
:10055000CF910895E889F989108220E1D9CF282F19
:1005600030E0F901E25BFC4F9491F901E25FFB4F4F
:10057000449128533C4FF9012491222309F435C0BA
:10058000992311F191509231F8F4E92FF0E0882786
:10059000E353FD4F8F4F0C94D32DFE020203DF0275
:1005A000F602FA02E40205030B030F031503190315
:1005B0001D0323032703E4022B033103350380913A
:1005C00080008F7780938000E22FF0E0EE0FFF1F16
:1005D000E255FC4FA591B4918FB7F894EC9161115D
:1005E00048C040954E234C938FBF08958091800062
:1005F0008F7DE8CF80918000877FE4CF84B58F77AF
:1006000084BDE2CF84B58F7DFBCF8091B0008F7722
:100610008093B000D9CF8091B0008F7DF9CF8091C9
:1006200090008F7780939000CFCF809190008F7D46
:10063000F9CF80919000877FF5CF8091A0008F77D0
:100640008093A000C1CF8091A0008F7DF9CF8091D1
:10065000A000877FF5CF809120018F7780932001C4
:10066000B3CF809120018F7DF9CF80912001877FCA
:10067000F5CF4E2BB8CFCF93DF9390E0FC01E25F34
:10068000FB4F249188539C4FFC0184918823D1F027
:1006900090E0880F991FFC01EC5CFC4FA591B49190
:1006A000FC01E255FC4FC591D49161110EC09FB77A
:1006B000F8948C91E22FE0958E238C932881E2238D
:1006C000E8839FBFDF91CF9108958FB7F894EC91A5
:1006D000E22BEC938FBFF6CF0F931F93CF93DF9353
:1006E000EC01162F042F1B821A8288EE93E0A0E003
:1006F000B0E08C839D83AE83BF838AE092E09983D0
:1007000088831F8A1E8A198E188E1B8E1A8E1D8E44
:100710001C8E6E8D6E7F6D7F6E8F6695617081E031
:100720006827842F0E94AF0261E0802F0E943B0364
:10073000802F90E0FC01E25FFB4FE491E88BFC012D
:10074000E853FC4FE491F0E0EE0FFF1FE255FC4F41
:10075000859194919A8B898B60E0812F0E943B0355
:100760008E8D81FD04C061E0812F0E94AF021C8745
:10077000812F90E0FC01E25FFB4FE491ED87FC01EB
:10078000E853FC4FE491F0E0EE0FFF1FEC56FC4FF6
:10079000859194919F878E87DF91CF911F910F91C3
:1007A00008953FB7F89480910C0490910D04A091A6
:1007B0000E04B0910F0426B5A89B05C02F3F19F079
:1007C0000196A11DB11D3FBFBA2FA92F982F8827D1
:1007D000BC01CD01620F711D811D911D42E0660FAC
:1007E000771F881F991F4A95D1F708958F929F927E
:1007F000AF92BF92CF92DF92EF92FF924B015C01DA
:100800000E94D1036B017C010E94D1036C197D0908
:100810008E099F09683E734081059105A8F321E088
:10082000821A9108A108B10888EEC80E83E0D81E8C
:10083000E11CF11C81149104A104B10429F7FF907B
:10084000EF90DF90CF90BF90AF909F908F900895E2
:100850002FB7F894609108047091090480910A04FC
:1008600090910B042FBF089580911404909115046A
:10087000891B990B0895EDE6F3E080818F5F8083FB
:100880000895FC01248135816217730720F480816B
:100890009181009729F410926C038CE693E00895FF
:1008A000860F971F089508950F931F93CF93DF939B
:1008B000EC010E942804688779878A879B87E881F2
:1008C000F9810284F385E02DCE01199597FF15C0BB
:1008D0000E942804088519852A853B85601B710BB9
:1008E000820B930B0C811D812E813F816017710754
:1008F0008207930720F38FEF9FEFDF91CF911F9136
:100900000F910895AF92BF92CF92DF92EF92FF9234
:100910000F931F93CF93DF936C017B018B01040F27
:10092000151FEB015E01AE18BF08C017D10759F0C3
:100930006991D601ED91FC910190F081E02DC60105
:100940001995892B79F7C501DF91CF911F910F91EF
:10095000FF90EF90DF90CF90BF90AF900895FC0193
:10096000A089B1898C91A689B78982FD0FC09C911D
:10097000818D8F5F8F73228D821749F0A18DAE0F0D
:10098000BF2FB11D5D969C93818F08958C91089522
:10099000FC01538D448D252F30E0842F90E0821B85
:1009A000930B541710F0CF96089501970895FC010A
:1009B000918D828D981761F0A28DAE0FBF2FB11D62
:1009C0005D968C91928D9F5F9F73928F90E00895BA
:1009D0008FEF9FEF0895FC01918D828D981731F074
:1009E000828DE80FF11D858D90E008958FEF9FEFC8
:1009F0000895FC01918D228D892F90E0805C9F4F9E
:100A0000821B91098F739927089586E894E00E94CC
:100A1000F90421E0892B09F420E0822F089583E274
:100A200095E00E94F90421E0892B09F420E0822F4F
:100A3000089580EC95E00E94F90421E0892B09F4E7
:100A400020E0822F08958DE596E00E94F90421E0D0
:100A5000892B09F420E0822F0895FC01A48DA80FB2
:100A6000B92FB11DA35ABF4F2C91848D90E00196F0
:100A70008F739927848FA689B7892C93A089B18910
:100A80008C91837080648C93938D848D981306C0B1
:100A90000288F389E02D80818F7D80830895EF9215
:100AA000FF920F931F93CF93DF93EC0181E0888F28
:100AB0009B8D8C8D98131AC0E889F989808185FFF8
:100AC00015C09FB7F894EE89FF896083E889F9899A
:100AD00080818370806480839FBF81E090E0DF919C
:100AE000CF911F910F91FF90EF900895F62E0B8DEF
:100AF00010E00F5F1F4F0F731127E02E8C8D8E11AA
:100B00000CC00FB607FCFACFE889F989808185FF10
:100B1000F5CFCE010E942D05F1CFEB8DEC0FFD2F0F
:100B2000F11DE35AFF4FF0829FB7F8940B8FEA89CB
:100B3000FB8980818062CFCFCF93DF93EC01888DDA
:100B40008823B9F0AA89BB89E889F9898C9185FD48
:100B500003C0808186FD0DC00FB607FCF7CF8C91D6
:100B600085FFF2CF808185FFEDCFCE010E942D055C
:100B7000E9CFDF91CF91089580E090E0892B29F0B3
:100B80000E94230581110E94000080E090E0892BE3
:100B900029F00E94190581110E94000080E090E078
:100BA000892B29F00E940F0581110E94000080E02E
:100BB00090E0892B29F00E94050581110C9400001A
:100BC0000895CF93DF93EC018A859B85AC85BD8525
:100BD0008E839F83A887B9870E9428046A837B83BA
:100BE0008C839D8381E089838883DF91CF910895F1
:100BF000CF93DF93EC018E819F81A885B9858A838D
:100C00009B83AC83BD830E9428046A877B878C8783
:100C10009D8781E089838883DF91CF91089520911A
:100C20006A0330916B032817390771F490916903B7
:100C300080916803981741F0E0916903F0E0E85D66
:100C4000FC4F808190E008958FEF9FEF0895089505
:100C5000EF92FF920F931F93CF93DF93DC015C968B
:100C6000ED90FC905D97E114F10479F481E090E05F
:100C700013969C938E93129790E080E0DF91CF9132
:100C80001F910F91FF90EF9008955196ED91FC9177
:100C9000529750968C915097982F90950FB75E96DB
:100CA0002C915E97122F127021FD6095F89420818F
:100CB000112319F1282B2083E7012197F1F728E070
:100CC000462F50E0308160FF1AC0382B3083E70197
:100CD0002197F1F7BA0175956795215089F711238E
:100CE00081F08081892380830FBF5C968D919C91D8
:100CF0000197F1F781E090E0C1CF2923DCCF3923C0
:100D0000E5CF9081892BEFCF20916A0330916B035F
:100D10002817390761F4809168032091690390E0F6
:100D2000805C9F4F821B91098F739927089590E0F3
:100D300080E0089520916A0330916B0328173907EA
:100D4000B9F49091690380916803981789F0E09154
:100D50006903F0E0E85DFC4F80812091690330E099
:100D60002F5F3F4F2F7333272093690390E008953F
:100D70008FEF9FEF0895E0916A03F0916B03E817FE
:100D8000F90769F4A389B4899C91858980958923A1
:100D90008C9310926B0310926A0381E0089580E0B7
:100DA0000895CF93DF93EC018A8D9B8D892B01F100
:100DB00080916A0390916B038C179D07C9F000978F
:100DC00011F00E94BB068E8D8E7F8E8F109268036D
:100DD00010926903D0936B03C0936A03EB89FC897B
:100DE00080819D89892B808381E0DF91CF91089557
:100DF00080E0FBCFCF93DF93EC019A01AB011B8E18
:100E00001A8E198E188E1F8A1E8A60E079E08DE393
:100E100090E00E94B42DC90103979D8F8C8F8C8523
:100E200096EF980F943048F06EEC680F643028F01D
:100E300062EC680F683008F061C0B901769567957B
:100E40006431710508F45FC0635171097F8B6E8B4B
:100E5000B90165507109798F688FB901660F771FE5
:100E6000260F371F36952795369527952C50310933
:100E70003B8F2A8F943050F02EEC280F243030F026
:100E800022EC280FF0E0E0E0283010F4E8E6F0E093
:100E90002081943020F032EC380F3830B8F131E056
:100EA000232B943048F09EEC980F943028F08E530A
:100EB000F0E0E0E0883010F4E8E6F0E020832C85F4
:100EC00036EF320F343020F18EEC820F843000F197
:100ED00082EC820F8830F8F090E080E09C8B8B8B66
:100EE0003430E0F42650330B81E001C0880F2A959E
:100EF000EAF78D8B8C8D9D8D0197F1F7CE01DF91F7
:100F0000CF910C94D10661E070E0A0CF34E0C8CF5F
:100F10008BE690E0E3CF8DE690E0E0CF88E02233EF
:100F200041F384E0233329F382E0243311F382EC8C
:100F3000820F883018F42E53330BD6CF81E0D9CFEF
:100F400020910503260F3327331F21323105ECF49E
:100F500020915C04FC0190E080E0243069F082E0A4
:100F60000895A09105032191AC014B515D4FA40F51
:100F7000B52FB11D2C930196861798F38091050328
:100F8000680F6093050380E0089581E00895109252
:100F90005C0481E080935B041092360461E084E19C
:100FA0000E94AF0261E085E10E94AF02E9EBF0E050
:100FB00080818E7F808380818D7F808388E4809391
:100FC000B80085E48093BC00089510921504109237
:100FD000140410926304109285040E94C70789E6E6
:100FE00092E090931304809312048AE692E0909327
:100FF0001104809310040895CF93DF9391E09093B0
:10100000E4028823B9F0C091B800D091BA00809171
:10101000BC008A7B8093BC0060E084E10E94AF0248
:1010200060E085E10E94AF020E94C707D093BA003A
:10103000C093B800DF91CF9108958F929F92AF92A5
:10104000BF92CF92DF92EF92FF920F931F93CF93B5
:10105000DF93D0918504D13208F0D7C0182FC0910A
:1010600084040E94D1036B017C0180915C04811196
:101070006BC082E080935C0410935B048FEF8093DD
:101080005A0410925904D0935804A4E6B4E0E8E35B
:10109000F4E080E0D81391C01092370480913704B7
:1010A000CC0FC82BC093370480913604813009F0EF
:1010B00088C0109236040E94D1036B017C0180919C
:1010C00037048093BB0080915E0490915F04A091EF
:1010D0006004B0916104892B8A2B8B2BA1F00E94B4
:1010E000D10300915E0410915F042091600430915F
:1010F00061046C197D098E099F09061717072807D7
:10110000390708F442C08091BC0083FDD8CF85EC3C
:101110008093BC000E94D1036B017C0180915C0430
:10112000823009F450C080915A048F3F09F46FC097
:1011300080915A04803209F46CC080915A04803343
:1011400009F469C084E026C080915E0490915F0438
:10115000A0916004B0916104892B8A2B8B2B09F438
:1011600084CF0E94D10380905E0490905F04A09091
:101170006004B09061046C197D098E099F09861680
:101180009706A806B90608F070CF80915D040E940A
:10119000FC0785E0109263041092850410926204AB
:1011A000DF91CF911F910F91FF90EF90DF90CF9043
:1011B000BF90AF909F908F9008959D9191938F5F76
:1011C00069CF85EEA5CF80915E0490915F04A091D8
:1011D0006004B0916104892B8A2B8B2B09F49ECF7C
:1011E0000E94D10300915E0410915F04209160047D
:1011F000309161046C197D098E099F090617170744
:101200002807390708F08ACFC0CF81E0C3CF80E03C
:10121000C1CF82E0BFCF83E0BDCF8F929F92AF92CC
:10122000BF92CF92DF92EF92FF920F931F93CF93D3
:10123000DF93D82FC62F142F613208F09CC00E9474
:10124000D1036B017C0180915C0481116FC081E04E
:1012500080935C0410935B049FEF90935A04109268
:1012600059049C0F9093580480933704809137045D
:10127000DD0FD82BD093370480913604813009F0EC
:101280007CC0109236040E94D1036B017C018091D6
:1012900037048093BB0080915E0490915F04A0911D
:1012A0006004B0916104892B8A2B8B2BA1F00E94E2
:1012B000D10300915E0410915F042091600430918D
:1012C00061046C197D098E099F0906171707280705
:1012D000390708F44CC08091BC0083FDD8CF85EC61
:1012E0008093BC000E94D1036B017C0180915C045F
:1012F000813009F444C0809159048C1710F4C091D6
:101300005904E8E3F4E0A6E1B4E080E08C1359C0AE
:101310008C2FDF91CF911F910F91FF90EF90DF9075
:10132000CF90BF90AF909F908F90089580915E0472
:1013300090915F04A0916004B0916104892B8A2B85
:101340008B2B09F480CF0E94D10380905E04909093
:101350005F04A0906004B09061046C197D098E094F
:101360009F0986169706A806B90608F06CCF8091EB
:101370005D040E94FC07C0E0CBCF85EEB1CF809129
:101380005E0490915F04A0916004B0916104892B88
:101390008A2B8B2B09F4AACF0E94D10300915E0403
:1013A00010915F0420916004309161046C197D09F3
:1013B0008E099F09061717072807390708F096CFE7
:1013C000D6CF91919D938F5FA1CFE091150480912D
:1013D0001404E81730F4F0E0EA5EFB4F808190E0FF
:1013E00008958FEF9FEF0895909115048091140454
:1013F0002FEF3FEF981748F4E92FF0E0EA5EFB4F3C
:10140000208130E09F5F90931504C9010895CF9229
:10141000DF92EF92FF920F931F93CF93DF937C01A4
:10142000CB018A0120916204222389F0EB016B0138
:10143000C40ED51ECC15DD0569F06991D701ED917B
:10144000FC910190F081E02DC7011995F3CF642F35
:101450000E94A007C801DF91CF911F910F91FF90CB
:10146000EF90DF90CF900895CF93DF931F92CDB789
:10147000DEB76983209162042223F9F0209185046C
:10148000203258F021E030E0FC013383228390E0E9
:1014900080E00F90DF91CF91089580916304E82F51
:1014A000F0E0EC59FB4F998190838F5F8093630448
:1014B0008093850481E090E0ECCF61E0CE0101965D
:1014C0000E94A007F7CF682F8AEF96E00C94340AA9
:1014D00081E00C941D0890E080E008951F93CF9365
:1014E000DF93EA01122FDC0111968D919C91DC01B2
:1014F000ED91FC910280F381E02D1995C817D90771
:1015000029F4812F0E941D0891E0811190E0892F1C
:10151000DF91CF911F910895CF93DF93EC018B81E1
:10152000882371F088810E945F0289819A810E94DC
:10153000680A91E0811190E0892FDF91CF910895A1
:101540000E94E50781E08B83CE010E948C0A982FD0
:101550008111E8CFF1CF08950895EDE6F3E0918190
:1015600080818183282F291B6281738184819581E9
:10157000620F711D811D911D628373838483958326
:1015800008950F931F93CF93DF93EC014C875D87F2
:101590006E877F870E94AD0A688379838A839B83E5
:1015A0000C851D852E853F850C831D832E833F83EF
:1015B000188619861A861B86672B682B692B41F4BF
:1015C00081E090E0A0E0B0E088839983AA83BB83A8
:1015D000DF91CF911F910F910895CF93C82F60E0B5
:1015E0000E94AF026AE070E080E090E00E94F603A3
:1015F00061E08C2FCF910C94AF0241E0682F86E719
:101600000E940D09109215048093140408950F93FD
:101610001F93CF93DF931F921F92CDB7DEB78983BD
:101620006A830091080710910907F8018481958168
:10163000029798F080810E945F0221E042E050E032
:10164000BE016F5F7F4FC8010E946E0A0F900F901E
:10165000DF91CF911F910F91089580E0F7CFE6E0E1
:10166000F7E080879187682F8DE390E00E94070B59
:101670006EE170E080E090E00C94F6035F926F9270
:101680007F928F929F92AF92BF92CF92DF92EF9212
:10169000FF920F931F93CF93DF93DC011496ED918C
:1016A000FC91EF2B09F44FC069013A018B01EC0169
:1016B00088810E945F0220E041E050E0B801CE0145
:1016C0000E946E0A582E8823F1F1F12CE12CEC14C3
:1016D000FD04D0F58C819D8186010E191F098017AC
:1016E000910708F48C0141E0C601801B910BE816BC
:1016F000F90608F440E0602F013208F060E28881CA
:101700000E940D091092150480931404801711068D
:10171000D1F443018E0C9F1C5401C501881999090D
:101720008017910768F489819A81DC01ED91FC9121
:101730000284F385E02D1995F50181935F01EDCFCA
:10174000E00EF11EC4CF512C852DDF91CF911F915A
:101750000F91FF90EF90DF90CF90BF90AF909F9050
:101760008F907F906F905F900895CF93DF931F923B
:10177000CDB7DEB7198221E030E0AE014F5F5F4F99
:10178000BA0180910807909109070E943E0B898158
:101790000F90DF91CF910895FB0101900020E9F7B0
:1017A0003197AF01461B570B0C948204CF93DF9304
:1017B000BC0180EC95E00E94CC0BEC016AE472E085
:1017C00080EC95E00E94CC0B8C0F9D1FDF91CF9198
:1017D00008952F923F924F925F926F927F928F92D5
:1017E0009F92AF92BF92CF92DF92EF92FF920F93B0
:1017F0001F93CF93DF9360901D0870901E086114B3
:10180000710409F410C1FC01848095808114910455
:1018100009F409C18B017C01FB01C480D580C81883
:10182000D908C0911908D0911A08C114D104B9F48B
:10183000F70160817181CE010E942330EC01009795
:1018400009F4F1C0F80160817181448155810E94E1
:10185000E92FF80184819581C80FD91FE9CFD7FC02
:1018600010C0FC01408051805301CE01B2010E94A2
:101870002330009709F44CC0880D991DAC0CBD1C99
:10188000F5CF5E01F70160817181CE010E942330A6
:101890003C01009739F14C018C1A9D0AA401BE014C
:1018A000C5010E94E92FA80CB91CF8016081718163
:1018B00044815581C5010E94E92FF80184819581F9
:1018C000A80EB91EF701C481D581C60DD71D809120
:1018D0001D0890911E088C0D9D1D90931E088093ED
:1018E0001D08D0CFBE01C501DF91CF911F910F918F
:1018F000FF90EF90DF90CF90BF90AF909F908F9030
:101900007F906F905F904F903F902F900C940D3090
:101910006A147B0409F487C080911B0890911C080D
:101920008A159B0588F4B5016F5F7F4FCE010E9439
:10193000082F009709F477C090931A08809319082C
:10194000B0921C08A0921B08C0911D08D0911E08DF
:101950002197D7FD68C04E01F7014480558041149E
:10196000510409F460C0A0901D08B0901E08A11495
:10197000B10409F458C0A414B50408F454C0CA153D
:10198000DB0520F04501F1E08F1A910860901908FD
:1019900070901A08C301CFEFDFEF1301280C391C38
:1019A0002816390688F0F701608171810E94233082
:1019B000009751F09C01261937098216930608F406
:1019C0009E010196E901ECCFD7FD2DC04C0E5D1EA6
:1019D000C301840D951DA50144195509BC018C0D49
:1019E0009D1D0E94F22F80911D0890911E088C0D64
:1019F0009D1D90931E0880931D0820911908309119
:101A00001A08820F931FFC0110828091190890918F
:101A10001A08F80160817181448155818C0F9D1FE6
:101A20000E94E92F95CFDF91CF911F910F91FF90E9
:101A3000EF90DF90CF90BF90AF909F908F907F906E
:101A40006F905F904F903F902F9008950F931F934A
:101A5000CF93DF93EC0188819981009759F02A8117
:101A60003B812617370730F081E0DF91CF911F913E
:101A70000F9108958B016F5F7F4F0E94082F009791
:101A800059F0998388831B830A832C813D81232B02
:101A900059F7FC011082E8CF80E0E7CFEF92FF9288
:101AA0000F931F93CF93DF936115710541F480E08D
:101AB000DF91CF911F910F91FF90EF900895411505
:101AC0005105B1F07B01EC010C811D81040F151F44
:101AD000B8010E94260D882351F3288139818C8119
:101AE0009D81B701820F931F0E940D301D830C83CF
:101AF00081E0DECFEF92FF920F931F93CF93DF939E
:101B0000CDB7DEB764970FB6F894DEBF0FBECDBF7A
:101B10007C01CB01BA018E010F5F1F4F22E044E030
:101B20000E940027FC0101900020E9F73197AF01E6
:101B3000481B590BBC01C7010E944E0D64960FB69D
:101B4000F894DEBF0FBECDBFDF91CF911F910F91F3
:101B5000FF90EF900895FB0101900020E9F7319785
:101B6000AF01461B570B0C944E0D2F923F924F9294
:101B70005F926F927F928F929F92AF92BF92CF921D
:101B8000DF92EF92FF920F931F93CF93DF93D82FA3
:101B9000C92F8B010E941E2724E630E040E050E070
:101BA0000E94922D49019B01AC0160E876E988E929
:101BB00090E00E94822D6B017C01F801918280826D
:101BC000ED2FFC2F2191822F022E000C990BC09734
:101BD0000A97C0F32E3239F51F0180E8882E86E976
:101BE000982E88E9A82EB12C9AE0492E512C612C10
:101BF000712CF101C1911F010C2E000CDD0BE0973F
:101C0000CA30D10580F4C501B401A30192010E943C
:101C1000922D49015A01DE010E94DB2DC60ED71E0E
:101C2000E81EF91EE6CFA5E0B0E0A70196010E94EC
:101C3000352B6F5F7F4F8F4F9F4F23E030E040E0A9
:101C400050E00E94922DF801228333834483558310
:101C50001682DF91CF911F910F91FF90EF90DF904F
:101C6000CF90BF90AF909F908F907F906F905F903C
:101C70004F903F902F9008951F93CF93DF93EC01E7
:101C800018811D3209F42196CE010E941E279B0166
:101C9000AC01A4E6B0E00E94352BAB01BC01FE0113
:101CA0002991822F022E000C990BC0970A97B8F346
:101CB0002E3231F58181082E000C990BC0978A30A5
:101CC0009105F0F4AAE0A89F9001A99F300D11247E
:101CD000C901330FAA0BBB0B480F591F6A1F7B1F8B
:101CE0008281082E000C990BC0978A30910540F430
:101CF000092E000CAA0BBB0B480F591F6A1F7B1F34
:101D00001D3239F470956095509541955F4F6F4F36
:101D10007F4FCB01BA01DF91CF911F9108958F9230
:101D20009F92AF92BF92CF92DF92EF92FF920F936A
:101D30001F93CF93DF93CDB7DEB763970FB6F894B9
:101D4000DEBF0FBECDBF7C018B01FB01349680E26C
:101D5000DF011D928A95E9F784E290E0A0E0B0E00F
:101D6000FB0180839183A283B383F70184819581F2
:101D7000A681B781FB0184839583A683B78383E023
:101D800090E0A0E0B0E080879187A287B3870E94AF
:101D90002804D80150966D937D938D939C9353970F
:101DA0008CE0FE013196DF011D928A95E9F7AE01C4
:101DB000435F5F4F86E0FA0111928A95E9F78AE165
:101DC0008B8B26E030E0BE016D5E7F4FD70112960F
:101DD0008D919C910E943E0B6D857E85072E000C97
:101DE000880B990B0E94182A20E030E040E85DE360
:101DF0000E94772A4B015C016F857889072E000CC1
:101E0000880B990B0E94182A20E030E040E85DE33F
:101E10000E94772A6B017C0169897A89072E000C60
:101E2000880B990B0E94182A20E030E040E85DE31F
:101E30000E94772AF801848A958AA68AB78AC08E7A
:101E4000D18EE28EF38E648F758F868F978F81E0AF
:101E500063960FB6F894DEBF0FBECDBFDF91CF9172
:101E60001F910F91FF90EF90DF90CF90BF90AF90B8
:101E70009F908F9008950F931F93CF93DF938C01C2
:101E8000EB0188E2FB0111928A95E9F74BE050E003
:101E90006DE472E0CE010E9414301B8681E090E078
:101EA000A0E0B0E08C879D87AE87BF87F801848172
:101EB0009581A681B781888B998BAA8BBB8B83E098
:101EC00090E0A0E0B0E08C8B9D8BAE8BBF8B1CA212
:101ED0001DA21EA21FA2188E198E1A8E1B8E1C8E7A
:101EE0001D8E1E8E1F8E8AE097EDA3E2BCE388A3B1
:101EF00099A3AAA3BBA3DF91CF911F910F9108953E
:101F0000EF92FF920F931F93CF93DF9300D01F9216
:101F1000CDB7DEB77C01862F4AE08E010F5F1F4FE1
:101F2000B80190E00E944527F80101900020E9F7F0
:101F30003197AF01401B510BB801C7010E944E0DF4
:101F40000F900F900F900F90DF91CF911F910F91F5
:101F5000FF90EF900895EF92FF920F931F93CF930E
:101F6000DF93CDB7DEB72D970FB6F894DEBF0FBE67
:101F7000CDBF7C01CB01BA012AE08E010F5F1F4F5C
:101F8000A8010E947427F80101900020E9F7319719
:101F9000AF01401B510BB801C7010E944E0D2D9699
:101FA0000FB6F894DEBF0FBECDBFDF91CF911F916A
:101FB0000F91FF90EF900895EF92FF920F931F9370
:101FC000CF93DF9300D000D01F92CDB7DEB77C0156
:101FD000CB014AE08E010F5F1F4FB8010E94962788
:101FE000F80101900020E9F73197AF01401B510B38
:101FF000B801C7010E944E0D27960FB6F894DEBFB8
:102000000FBECDBFDF91CF911F910F91FF90EF9049
:1020100008950F931F93CF93DF938C01EB01FC0185
:10202000808191810097E1F0688179816115710566
:10203000A9F0428153812C813D814217530770F0F2
:102040000E940D308C819D81F801958384831D82CF
:102050001C82DF91CF911F910F9108950E947F2ED6
:1020600088819981F801918380838A819B81938300
:1020700082838C819D8195838483198218821B823F
:102080001A82E5CFCF93DF93EC0188819981009785
:1020900011F00E947F2E198218821D821C821B82E1
:1020A0001A82DF91CF910895CF93DF93EC0141E045
:1020B00050E067E972E00E944E0D811103C0CE012D
:1020C0000E944210CE01DF91CF910895CF93DF930C
:1020D000EC01FB0144815581608171810E944E0DAC
:1020E000811103C0CE010E944210CE01DF91CF9139
:1020F0000895EF92FF920F931F93CF93DF93EC011C
:102100007B018A01BA010E94260D81110BC0CE010C
:102110000E944210CE01DF91CF911F910F91FF904D
:10212000EF9008951D830C83B701888199810E94E7
:102130000D30F0CFEF92FF920F931F93CF93DF9369
:10214000CDB7DEB7A1970FB6F894DEBF0FBECDBFF7
:102150007C01CB01BA01F701118210821382128235
:10216000158214828E010F5F1F4F22E044E00E940F
:1021700000270097C9F0FC0101900020E9F7319792
:10218000AF01481B590BBC01C7010E947910A196F1
:102190000FB6F894DEBF0FBECDBFDF91CF911F9178
:1021A0000F91FF90EF900895C7010E944210EFCF6A
:1021B000CF93DF93EC01FB018617970749F060810D
:1021C00071816115710541F0448155810E9479103A
:1021D000CE01DF91CF9108950E944210F9CFFC010A
:1021E000118210821382128215821482FB010190E7
:1021F0000020E9F73197AF01461B570B0C9479107B
:10220000EF92FF920F931F93CF93DF931F921F9232
:10221000CDB7DEB78C017B016CE472E00E94EF1059
:10222000C7010E94540497FD0BC089831A8241E0C4
:1022300050E0BE016F5F7F4FC8010E944E0DF0CF8E
:10224000C8010F900F90DF91CF911F910F91FF90D8
:10225000EF900895FC0180819181009711F00C941A
:102260007F2E08950C947F2E85ED8093BC00809185
:102270005E0490915F04A0916004B09161040796A0
:10228000A11DB11D23E0B695A795979587952A9531
:10229000D1F72091BC0024FD03C010925C04089586
:1022A00040915E0450915F046091600470916104FC
:1022B000452B462B472B69F30097A105B10541F04B
:1022C0002AE22A95F1F700C00197A109B109E1CFEF
:1022D00080915D040C94FC071F920F920FB60F9231
:1022E00011242F933F938F939F93AF93BF9380912C
:1022F000080490910904A0910A04B0910B04309154
:10230000070423E0230F2D3758F50196A11DB11DB9
:10231000209307048093080490930904A0930A046F
:10232000B0930B0480910C0490910D04A0910E04C5
:10233000B0910F040196A11DB11D80930C049093E0
:102340000D04A0930E04B0930F04BF91AF919F9121
:102350008F913F912F910F900FBE0F901F90189566
:1023600026E8230F0296A11DB11DD2CF1F920F9216
:102370000FB60F9211240BB60F922F933F934F93EA
:102380005F936F937F938F939F93AF93BF93EF93DD
:10239000FF9386E894E00E942D05FF91EF91BF9195
:1023A000AF919F918F917F916F915F914F913F91ED
:1023B0002F910F900BBE0F900FBE0F901F9018958E
:1023C0001F920F920FB60F9211240BB60F922F93FC
:1023D0003F934F935F936F937F938F939F93AF93AD
:1023E000BF93EF93FF9386E894E00E94AF04FF91C0
:1023F000EF91BF91AF919F918F917F916F915F917D
:102400004F913F912F910F900BBE0F900FBE0F90E9
:102410001F9018951F920F920FB60F9211240BB6B2
:102420000F922F933F934F935F936F937F938F936D
:102430009F93AF93BF93EF93FF9383E295E00E9446
:102440002D05FF91EF91BF91AF919F918F917F915A
:102450006F915F914F913F912F910F900BBE0F9015
:102460000FBE0F901F9018951F920F920FB60F92EC
:1024700011240BB60F922F933F934F935F936F935B
:102480007F938F939F93AF93BF93EF93FF9383E2D9
:1024900095E00E94AF04FF91EF91BF91AF919F91A2
:1024A0008F917F916F915F914F913F912F910F90FD
:1024B0000BBE0F900FBE0F901F9018951F920F929A
:1024C0000FB60F9211240BB60F922F933F934F9399
:1024D0005F936F937F938F939F93AF93BF93EF938C
:1024E000FF9380EC95E00E942D05FF91EF91BF9145
:1024F000AF919F918F917F916F915F914F913F919C
:102500002F910F900BBE0F900FBE0F901F9018953C
:102510001F920F920FB60F9211240BB60F922F93AA
:102520003F934F935F936F937F938F939F93AF935B
:10253000BF93EF93FF9380EC95E00E94AF04FF916F
:10254000EF91BF91AF919F918F917F916F915F912B
:102550004F913F912F910F900BBE0F900FBE0F9098
:102560001F9018951F920F920FB60F9211240BB661
:102570000F922F933F934F935F936F937F938F931C
:102580009F93AF93BF93EF93FF938DE596E00E94E7
:102590002D05FF91EF91BF91AF919F918F917F9109
:1025A0006F915F914F913F912F910F900BBE0F90C4
:1025B0000FBE0F901F9018951F920F920FB60F929B
:1025C00011240BB60F922F933F934F935F936F930A
:1025D0007F938F939F93AF93BF93EF93FF938DE57B
:1025E00096E00E94AF04FF91EF91BF91AF919F9150
:1025F0008F917F916F915F914F913F912F910F90AC
:102600000BBE0F900FBE0F901F9018951F920F9248
:102610000FB60F9211240BB60F922F933F934F9347
:102620005F936F937F938F939F93AF93BF93EF933A
:10263000FF938091790390917A038093B200809107
:102640007C0390917D03A0917E03B0917F0301965E
:10265000A11DB11D80937C0390937D03A0937E0305
:10266000B0937F0380917C0390917D03A0917E03C2
:10267000B0917F0340917503509176036091770389
:102680007091780384179507A607B70710F180911A
:102690007B0381111EC081E080937B0380917C03CA
:1026A00090917D03A0917E03B0917F03841B950BD5
:1026B000A60BB70B80937C0390937D03A0937E03BE
:1026C000B0937F03E0917303F09174031995109216
:1026D0007B03FF91EF91BF91AF919F918F917F917C
:1026E0006F915F914F913F912F910F900BBE0F9083
:1026F0000FBE0F901F9018951F920F920FB60F925A
:1027000011240BB60F922F933F934F935F936F93C8
:102710007F938F939F93AF93BF93EF93FF93E0913A
:102720006A03F0916B03309749F0A685B7858585DC
:10273000968D91FF16C09C918923B1F4FF91EF9182
:10274000BF91AF919F918F917F916F915F914F91C9
:102750003F912F910F900BBE0F900FBE0F901F90C7
:1027600018959C91892351F7A389B4899C918589F7
:10277000809589238C93868997890197F1F7608DDD
:10278000718DA685B785558538E020E0CB0101978E
:10279000F1F7822F90E095958795282F4C9145234E
:1027A00009F02068315091F7868D81FD2095809148
:1027B000680390E001968F73992730916903381769
:1027C00099F0A0916803B0E0A85DBC4F2C93809372
:1027D0006803828D938D0197F1F7A389B4898C9159
:1027E0009589892B8C93AACF868D8160868FF1CFB6
:1027F0001F920F920FB60F9211240BB60F922F93C8
:102800003F934F935F936F937F938F939F93AF9378
:10281000BF93EF93FF938091B900887F803609F4CE
:102820004DC008F040C0883209F4A9C028F58031B5
:1028300009F49DC0C8F4882309F4FBC0883009F46A
:1028400096C0FF91EF91BF91AF919F918F917F9132
:102850006F915F914F913F912F910F900BBE0F9011
:102860000FBE0F901F901895883109F488C08032F0
:1028700041F780935A0414C0803409F49DC040F499
:102880008033B9F38833E9F680935A0485ECB0C0FD
:10289000803509F485C0883509F496C0883489F6F6
:1028A0000E943411CECF883909F48CC038F58837AE
:1028B00029F050F4883611F0803719F683E08093C0
:1028C0005C041092270357C0883809F47BC0803914
:1028D00019F0803809F0B5CF80912703803208F0D5
:1028E00071C0E091270381E08E0F809327038091D0
:1028F000BB00F0E0E95FFC4F80833DC0803B39F0D6
:10290000E0F4803A09F479C0883A09F09ACF84E07B
:1029100080935C041092060310920503E091120468
:10292000F091130419958091050381110FC081E086
:10293000809305031092E50209C0803C09F4A6CFFC
:10294000883C09F4A3CF883B09F07BCFE0910603D4
:1029500081E08E0F80930603F0E0EB51FD4F808104
:102960008093BB00909106038091050329C080915C
:1029700037048093BB0085EC8093BC0062CF9091BC
:10298000590480915804981758F5E091590481E052
:102990008E0F80935904F0E0E85CFB4F8081E9CF13
:1029A000E091590481E08E0F809359048091BB001F
:1029B000F0E0E85CFB4F80839091590480915804CB
:1029C0009817C8F285E8D8CFE091590481E08E0FBE
:1029D000809359048091BB00F0E0E85CFB4F80835A
:1029E00080915B0481115CCF81E08093360484EA9E
:1029F0008093BC0010925C0424CF85EC8093BC00D3
:102A000010925C0480912703803230F4E091270318
:102A1000F0E0E95FFC4F10826091270370E0E091E5
:102A20001004F091110487E093E0199510922703A8
:102A300008CF10925A0434CF0F931F93CF93DF9394
:102A4000109289041092880488EE93E0A0E0B0E030
:102A500080938A0490938B04A0938C04B0938D048C
:102A60002CE132E0309387042093860445E351E063
:102A7000509393044093920444E351E0509395049F
:102A80004093940440E351E050939704409396049C
:102A900041E351E0509399044093980442E351E09C
:102AA00050939B0440939A0446E351E050939D0455
:102AB00040939C0410929F041092A0041092A104D1
:102AC0001092A204109226051092250580932705E6
:102AD00090932805A0932905B0932A0530932405E7
:102AE0002093230545ED50E05093300540932F058A
:102AF00044ED50E0509332054093310540ED50E0F5
:102B0000509334054093330541ED50E05093360522
:102B10004093350542ED50E050933805409337051A
:102B200046ED50E050933A054093390510923C052C
:102B300010923D0510923E0510923F051092C3057C
:102B40001092C2058093C4059093C505A093C60555
:102B5000B093C7053093C1052093C0054DEC50E0FC
:102B60005093CD054093CC054CEC50E05093CF05ED
:102B70004093CE0548EC50E05093D1054093D005EA
:102B800049EC50E05093D3054093D2054AEC50E015
:102B90005093D5054093D4054EEC50E05093D705A3
:102BA0004093D6051092D9051092DA051092DB05F4
:102BB0001092DC051092600610925F068093610609
:102BC00090936206A0936306B093640630935E060A
:102BD00020935D0625EC30E030936A062093690669
:102BE00024EC30E030936C0620936B0620EC30E050
:102BF00030936E0620936D0621EC30E03093700622
:102C000020936F0622EC30E0309372062093710619
:102C100026EC30E03093740620937306109276060B
:102C20001092770610927806109279061092FD069F
:102C30001092FC068093FE069093FF06A093000777
:102C4000B09301078EE292E09093FB068093FA0620
:102C5000CBEFD7E00BE218E06CE472E0CE010E940B
:102C6000EF1026960C171D07B9F749E06AE08CEDC6
:102C700097E00E946C0345E464E48DEB97E00E94CA
:102C80006C03109210071092110710921307109204
:102C9000120710921407109215071092160710923F
:102CA00017071092180710921A071092190710921E
:102CB0001B0710921C0710921D0710921E071092FE
:102CC0001F071092210710922007109222071092DE
:102CD00023071092240710922507109226071092BE
:102CE0002807109227071092290710922A0710929E
:102CF0002B0710922C0710922D071092320710927A
:102D0000330710923407109235071092360710924D
:102D10003707109240071092410710924207109215
:102D20004307109244071092450710924E071092E5
:102D30004F071092540710925507109256071092A1
:102D4000570710925C0710925D071092620710926D
:102D50006307109264071092650710926A07109239
:102D60006B07109270071092710710927207109201
:102D70007307109278071092790710927E071092CD
:102D80007F07109280071092810710928607109299
:102D9000870710928C0710928D0710928E07109261
:102DA0008F07109294071092950782E08093A507F1
:102DB0001092A6071092A7071092A8071092AA07D0
:102DC0001092A9071092AC071092AB071092AD07B2
:102DD0001092AE071092AF071092B0071092B10791
:102DE0001092B2071092B3071092B4071092B50771
:102DF0001092B6071092B7071092B8071092B90751
:102E00001092BA071092BB071092BC071092960757
:102E100080E492E0909307078093060787E390E0B1
:102E2000A0E0B0E080930A0790930B07A0930C07F3
:102E3000B0930D0786E090E00E94E32DFC0188E24C
:102E400080838AEF96E092838183138280E290E010
:102E500095838483F0930907E0930807DF91CF916E
:102E60001F910F910895CF93DF93CDB7DEB7C8556B
:102E7000D1090FB6F894DEBF0FBECDBF789484B5EC
:102E8000826084BD84B5816084BD85B5826085BD66
:102E900085B5816085BD80916E00816080936E00F4
:102EA00010928100809181008260809381008091E6
:102EB0008100816080938100809180008160809397
:102EC00080008091B10084608093B1008091B00057
:102ED00081608093B0008091910082608093910026
:102EE0008091910081608093910080919000816039
:102EF000809390008091A10082608093A1008091D6
:102F0000A10081608093A1008091A00081608093E6
:102F1000A000809121018260809321018091210194
:102F20008160809321018091200181608093200144
:102F300080917A00846080937A0080917A00826028
:102F400080937A0080917A00816080937A008091EA
:102F50007A00806880937A001092C10040E855E2C0
:102F600060E070E08DE596E00E946B0240E052EC7C
:102F700061E070E080EC95E00E946B0240E052EC72
:102F800061E070E083E295E00E946B0240E052EC69
:102F900061E070E086E894E00E946B0240E855E250
:102FA00060E070E08CED97E00E94FA0640E052ECA1
:102FB00061E070E08DEB97E00E94FA068AE090E015
:102FC000A0E0B0E08093610690936206A093630650
:102FD000B09364068093C4059093C505A093C6057D
:102FE000B093C7058093270590932805A0932905E2
:102FF000B0932A0580938A0490938B04A0938C0449
:10300000B0938D048093E0079093E107A093E207CB
:10301000B093E3078093C1079093C207A093C307BF
:10302000B093C4070E94E5070E94E50786E70E9467
:103030005F0285EF90E00E94630A90E080E00E94CA
:10304000630A8AEF96E00E94680A86E70E945F02A0
:1030500084EF90E00E94630A84E290E00E94630A99
:103060008AEF96E00E94680A86E70E945F0282EF7C
:1030700090E00E94630A81E090E00E94630A8AEF78
:1030800096E00E94680A86E70E945F0288E890E066
:103090000E94630A8AEF96E00E94680A8AE190E043
:1030A0000E94FD0A1092D6031092D5030091D50319
:1030B0001091D6030A311105A8F49091140480915F
:1030C00015049817F1F38AEF96E00E94F409F801CD
:1030D000E554FC4F80830F5F1F4F1093D60300937E
:1030E000D503E4CF8091BB039091BC039093A903D7
:1030F0008093A8038091BD039091BE039093A70392
:103100008093A6038091BF039091C0039093A50381
:103110008093A4038091C1039091C203909399037B
:10312000809398038091C3039091C40390939B0371
:1031300080939A038091C5039091C60390939D0359
:1031400080939C038091C7039091C80390939F0341
:1031500080939E038091C9039091CA039093A10329
:103160008093A0038091CB039091CC039093A30311
:103170008093A2038091CD039091CE03909393030B
:10318000809392038091CF039091D0039093950305
:10319000809394038091D1039091D20390939703ED
:1031A000809396038091D4038093AA0386E70E94BC
:1031B0005F0281EE90E00E94630A8AEF96E00E942F
:1031C000680A87E090E00E94FD0A1092D6031092F0
:1031D000D5030091D5031091D60307301105A8F44B
:1031E00090911404809115049817F1F38AEF96E0FA
:1031F0000E94F409F801E554FC4F80830F5F1F4FD4
:103200001093D6030093D503E4CF8091BB03909134
:10321000BC039093AC038093AB038091BD03809378
:10322000AD038091BF032091BE0330E1239FA00135
:103230001124282F2F70240F352F311D3093B20306
:103240002093B1032091C00340E1249F90011124F9
:1032500082958F70820F932F911D9093B00380936E
:10326000AF038091C1038093AE03009108071091D2
:1032700009070E94E50781E0D80113968C9305E5C4
:1032800010E0DD24D394E0900807F09009070E9435
:10329000E507F701D382C7010E948C0A81110C94C3
:1032A000AD266AE070E080E090E00E94F6030150F5
:1032B000110949F766E572E080EC95E00E94CC0BBD
:1032C000FFCF62E370E080E090E00E94F60360E0F0
:1032D0008EE390E00E94070B6AE070E080E090E0EF
:1032E0000E94F60360E087E090E00E94070B60E038
:1032F0008FE390E00E94070B6AE070E080E090E0CE
:103300000E94F6038CE090E00E942F0B64E170E0D5
:1033100080E090E00E94F60300910E0710910F07E5
:1033200090E080E00E942F0B69E170E080E090E087
:103330000E94F60360E087E090E00E94070B60E8DF
:103340008FE390E00E94070B6AE070E080E090E07D
:103350000E94F603C8010E942F0B64E170E080E038
:1033600090E00E94F60361E08BE00E943B0361E085
:1033700087E20E943B0361E08BE00E94AF0261E0C4
:1033800087E20E94AF0242E350E060E070E082E832
:1033900093E00E94C10A45E050E060E070E087EFF2
:1033A00093E00E94C10A45E050E060E070E085EEE5
:1033B00093E00E94C10AEDE6F3E086E0DF011D9292
:1033C0008A95E9F782E090E0A0E0B0E08093750391
:1033D00090937603A0937703B09378038BE394E004
:1033E0009093740380937303809170008E7F809319
:1033F00070008091B0008C7F8093B0008091B1000C
:10340000877F8093B1008091B6008F7D8093B60056
:10341000809170008D7F809370008091B1008460F6
:103420008093B1008091B1008C7F8093B10086E0E1
:1034300090E090937A038093790310927C0310922A
:103440007D0310927E0310927F0310927B03809184
:10345000790390917A038093B2008091700081602B
:103460008093700068EC70E080E090E00E94F603CA
:103470008CED97E00E94D10668EC70E080E090E06F
:103480000E94F603FE0131961F018E010F5C1F4F53
:103490008091820390918303A0918403B09185036E
:1034A000892B8A2B8B2B09F41BC10E94AD0AC0907B
:1034B0008203D0908303E0908403F0908503DC01C5
:1034C000CB018C199D09AE09BF0980938A039093A3
:1034D0008B03A0938C03B0938D03C0908603D09090
:1034E0008703E0908803F09089038C159D05AE0555
:1034F000BF0508F4F5C063E972E0CE01C7960E94EB
:10350000EF1080918003909181031AAA19AA1CAA36
:103510001BAA1EAA1DAA4AE0B1010E944527F1017B
:1035200001900020E9F73197AF0142195309B10129
:10353000C8010E947910B8018BEF97E00E94091032
:10354000C8010E942A1169E972E0C1010E94EF10CE
:1035500067E972E0CE0107960E94EF106EE972E013
:10356000CE010D960E94EF1064EA72E0CE01439600
:103570000E94EF106AEA72E0CE0149960E94EF10B5
:1035800060EB72E0CE014F960E94EF1066EB72E0A6
:10359000CE0185960E94EF106CEB72E0CE018B9607
:1035A0000E94EF1071013BEFC32E37E0D32ED701FD
:1035B00014964D915C9115976D917C91CE01C796B3
:1035C0000E944E0DF6014481558160817181CE01CA
:1035D000C7960E944E0DF6E0EF0EF11C26E0C20EDB
:1035E000D11CE016F10619F76CE472E0C8010E94E4
:1035F000EF10F12CE12C8BAD9CADE816F90660F5CF
:10360000B701CE01C7960E944104DC018C918A303B
:1036100071F4B701CE01C7960E944104FC0180817C
:103620008D3029F4B701CE01C7960E944104B7013D
:10363000CE01C7960E944104DC018C918DAF1EAE75
:1036400041E050E0BE01635C7F4FC8010E944E0D17
:10365000BFEFEB1AFB0ACFCF4DA95EA969A97AA9E2
:1036600080EC95E00E9482046AE472E080EC95E0D0
:103670000E94CC0B809180039091810301969093DE
:10368000810380938003C8010E942A117801E6E03B
:10369000EE1AF108C7010E942A112E143F04B9F74F
:1036A000CE01C7960E942A118091820390918303D4
:1036B000A0918403B09185034091860350918703C4
:1036C0006091880370918903840F951FA61FB71F0F
:1036D0008093820390938303A0938403B093850324
:1036E0008091E5039091E603A091E703B091E80390
:1036F000892B8A2B8B2B09F49BC00E94AD0A8090EA
:10370000E5039090E603A090E703B090E803AB01D7
:10371000BC01481959096A097B094093ED0350938C
:10372000EE036093EF037093F003C090E903D09031
:10373000EA03E090EB03F090EC034C155D056E0599
:103740007F0508F475C0D501C4018C0D9D1DAE1D0B
:10375000BF1D8093E5039093E603A093E703B09326
:10376000E8038091E3039091E4038130910509F42B
:10377000B2C044F4892B09F44CC01092E4031092B7
:10378000E30356C08230910509F4AAC00397A9F754
:1037900086E70E945F0284EF90E00E94630A85E260
:1037A00090E00E94630A8AEF96E00E94680A86E72A
:1037B0000E945F0287EF90E00E94630A8AEF96E022
:1037C0000E94680A88E090E00E94FD0A1092D603E9
:1037D0001092D503E090D503F090D603B8E0EB1635
:1037E000F10408F01EC290911404809115049817FA
:1037F000F1F38AEF96E00E94F409F701E554FC4FDB
:103800008083EFEFEE1AFE0AF092D603E092D50322
:10381000E1CF61E972E083E295E00E94CC0B8091F8
:10382000E3039091E40301969093E4038093E30310
:103830008091F7039091F803A091F903B091FA03F6
:10384000892B8A2B8B2B09F49AC50E94AD0A809094
:10385000F7039090F803A090F903B090FA03AB013E
:10386000BC01481959096A097B094093FF03509329
:1038700000046093010470930204C090FB03D09095
:10388000FC03E090FD03F090FE034C155D056E0512
:103890007F0508F474C5D501C4018C0D9D1DAE1DB6
:1038A000BF1D8093F7039093F803A093F903B0939F
:1038B000FA038091F5039091F6038130910509F4A4
:1038C00076C60CF0F6C4892B09F44BC51092F603AA
:1038D0001092F50354C561E972E086E894E09DCF4B
:1038E00088E0D1011D928A95E9F780E289AB28E052
:1038F00030E0A101B80180910807909109070E946A
:103900003E0B6F817885072E000C880B990B0E9467
:10391000182A20E030E040E858E30E94772A6B0143
:103920007C016D817E81072E000C880B990B0E9413
:10393000182A20E030E040E858E30E94772A2B0163
:103940003C016B817C81072E000C880B990B0E9437
:10395000182A20E030E040E858E30E94772A2D96AC
:103960006CAF7DAF8EAF9FAF2D9769817A81072EA7
:10397000000C880B990B0E94182A20E030E040E8E8
:1039800058E30E94772A61966CAF7DAF8EAF9FAFF0
:103990006197A3019201C301B2010E94772A659643
:1039A0006CAF7DAF8EAF9FAF65972D962CAD3DADC3
:1039B0004EAD5FAD2D97CA01B9010E94772A659679
:1039C0002CAD3DAD4EAD5FAD65970E94502B9B0178
:1039D000AC010E94502B9B01AC0160E070E080E8DC
:1039E0009FE30E944F2B4B015C0161962CAD3DADD6
:1039F0004EAD5FAD61972D966CAD7DAD8EAD9FAD3B
:103A00002D970E94772A69966CAF7DAF8EAF9FAFDE
:103A10006997A3019201C701B6010E94772A9B0111
:103A2000AC0169966CAD7DAD8EAD9FAD69970E947E
:103A3000502B9B01AC010E94502BA50194010E94C8
:103A4000EA2B69966CAF7DAF8EAF9FAF6997619699
:103A50002CAD3DAD4EAD5FAD6197C301B2010E948B
:103A6000772A4B015C012D962CAD3DAD4EAD5FAD7F
:103A70002D97C701B6010E94772A9B01AC01C501B1
:103A8000B4010E944F2B9B01AC010E94502B4B01B3
:103A90005C0120E030E040E85FE30E94162D18163C
:103AA0000CF4B8C020E030E040E85FEBC501B401A1
:103AB0000E94112A87FF06C0812C912C20E8A22E9B
:103AC0002FEBB22EC501B4010E94BC2B4B015C014F
:103AD000A7019601C701B6010E94772A65962CAD11
:103AE0003DAD4EAD5FAD65970E94502B9B01AC0183
:103AF0000E94502B9B01AC0160E070E080E89FE3E6
:103B00000E944F2B65966CAF7DAF8EAF9FAF6597D0
:103B100061962CAD3DAD4EAD5FAD6197C701B6016D
:103B20000E94772A6B017C012D962CAD3DAD4EADE8
:103B30005FAD2D97C301B2010E94772A9B01AC01B2
:103B4000C701B6010E94502B9B01AC010E94502B73
:103B500065962CAD3DAD4EAD5FAD65970E94EA2BED
:103B6000AB01BC01C1010E949A10B501A401C801BA
:103B70000E949A1069964CAD5DAD6EAD7FAD6997B0
:103B8000CE01CD960E949A1018AE1FAA1AAE19AE99
:103B90001CAE1BAEBE01635C7F4FCE01C7960E9478
:103BA000D810CE01C7960E945410B8010E9466102A
:103BB0000E945410B1010E94661025961FAE1EAEE1
:103BC000259727961FAE1EAE279729961FAE1EAECD
:103BD0002997BC01CE018D5B9F4F0E94D810CE016A
:103BE000C7960E942A11CE01CD960E942A11C801C3
:103BF0000E942A11C1010E942A11BE016D5B7F4FF4
:103C00008DE098E00E940910CE018D5B9F4F0E94CD
:103C10002A1105CE812C912C90E8A92E9FE3B92E74
:103C200051CFF091BB036296FFAF6297E091BC0366
:103C3000F091BD038091BE0390E0B0E0A0E02CE0E5
:103C4000880F991FAA1FBB1F2A95D1F74091BF0368
:103C500050E070E060E034E0440F551F661F771FAE
:103C60003A95D1F7842B952BA62BB72B2091C00327
:103C700022952F70AC01BD01422B2D964CAF5DAF4C
:103C80006EAF7FAF2D974090C1035090C203542474
:103C900045245424B20190E080E061966CAF7DAF82
:103CA0008EAF9FAF61976093B7037093B803809313
:103CB000B9039093BA038090B3039090B403A0909B
:103CC000B503B090B603B594A794979487947AEF10
:103CD000971AA108B108C501B40152E095958795DE
:103CE000779567955A95D1F79B01AC010E94822D7B
:103CF0002B013C01A0919C03B0919D03AC019B0161
:103D00006DE055954795379527956A95D1F70E94AF
:103D1000DB2D6B017C0173E0F594E794D794C79495
:103D20007A95D1F7A0919A03B0919B03A5019401D4
:103D30000E94DB2D9B01AC01559547953795279542
:103D40002C0D3D1D4E1D5F1DB2E1559547953795D4
:103D50002795BA95D1F730584F4F5F4FA0919803F0
:103D6000B09199030E94352B6B017C018FE0F59493
:103D7000E794D794C7948A95D1F7C114D104E1048C
:103D8000F10409F492C2A30192016BE055954795A5
:103D9000379527956A95D1F7A091A203B091A30317
:103DA0000E94DB2D2B013C01A091A003B091A10347
:103DB000A50194010E94DB2D660F771F881F991FB4
:103DC000460E571E681E791EB2E07594679457948C
:103DD0004794BA95D1F72E2F30E050E040E084E0D0
:103DE000220F331F441F551F8A95D1F7F295FF709C
:103DF0002F2B6296EFAD62978E2F90E0B0E0A0E09F
:103E00006CE0880F991FAA1FBB1F6A95D1F7282B5A
:103E1000392B4A2B5B2B80919E0390919F03092E97
:103E2000000CAA0BBB0BDC0199278827840D951D7C
:103E3000A61DB71D2C013D01ECE0759467945794C5
:103E40004794EA95D1F7240D351D461D571DABEC5F
:103E5000B3EF0E94DE2D805B9C4397FD1BC2660F73
:103E6000771F881F991FA70196010E94922D290193
:103E70003A01C301B20123E096958795779567953E
:103E80002A95D1F79B01AC010E94822D9B01AC01C8
:103E90006DE056954795379527956A95D1F7A0918E
:103EA0009603B09197030E94DB2D4B015C017CE0EF
:103EB000B594A794979487947A95D1F7A30192012A
:103EC000E2E05695479537952795EA95D1F7A09169
:103ED0009403B09195030E94DB2D6B017C01FDE002
:103EE000F594E794D794C794FA95D1F7C80CD91CE8
:103EF000EA1CFB1C8090920390909303092C000C09
:103F0000AA08BB08C80CD91CEA1CFB1CA4E0F59449
:103F1000E794D794C794AA95D1F7C40CD51CE61C96
:103F2000F71CC092D703D092D803E092D903F09245
:103F3000DA038091A8039091A903B0E0A0E02D9648
:103F40004CAC5DAC6EAC7FAC2D9734E0759467944F
:103F5000579447943A95D1F7481A590A6A0A7B0A46
:103F60002D962CAD3DAD4EAD5FAD2D9763E05595D3
:103F70004795379527956A95D1F7880F991FAA1FFE
:103F8000BB1F281B390B4A0B5B0BA091A603B091FA
:103F9000A7030E94DB2D4B015C01EBE0B594A794D5
:103FA00097948794EA95D1F7A3019201C301B201D6
:103FB0000E94822D9B01AC01FCE0559547953795F9
:103FC0002795FA95D1F7A091A403B091A5030E947B
:103FD000DB2DAEE09595879577956795AA95D1F7F6
:103FE000860E971EA81EB91E8092B3039092B4034A
:103FF000A092B503B092B603A5E0B0E0A50194018C
:104000000E94352B60587F4F8F4F9F4F672F782F1F
:10401000892F992787FD9A956093DF037093E003BA
:104020008093E1039093E203FCE29F1AF1E0AF0A70
:10403000B10861964CAC5DAC6EAC7FAC61978EE024
:10404000440C551C661C771C8A95D1F78091B103EE
:104050009091B203092E000CAA0BBB0B24E1880F30
:10406000991FAA1FBB1F2A95D1F7481A590A6A0A35
:104070007B0AA091AF03B091B003A50194010E9407
:10408000DB2D461A570A680A790A20E4520E611C91
:10409000711C3FE075946794579447943A95D1F713
:1040A000A091AD03B0E094010E94352B4BE09595B3
:1040B0008795779567954A95D1F79B01AC01305864
:1040C0004F4F5F4F2D962CAF3DAF4EAF5FAF2D974B
:1040D000A091AE030A2E000CBB0BA50194010E9417
:1040E000DB2D5AE095958795779567955A95D1F789
:1040F0002D962CAD3DAD4EAD5FAD2D970E94822D1E
:104100009B01AC016AE055954795379527956A95CF
:10411000D1F7405E5F4FA091AB03B091AC030E941A
:10412000DB2D705E8F4F9F4FEEE0959587957795CD
:104130006795EA95D1F7A30192010E94822D4B0168
:104140005C01FFE09595879577956795FA95D1F78E
:104150009B01AC010E94822D9B01AC01A7E055950B
:10416000479537952795AA95D1F7A091AA03B0E076
:104170000E94352BB4E09595879577956795BA950C
:10418000D1F7861A970AA80AB90AB7FE03C0812C8C
:10419000912C540131E083169104A10439E1B30656
:1041A0002CF0812C912CA12C29E1B22E9CE0B5940D
:1041B000A794979487949A95D1F78092DB03909275
:1041C000DC03A092DD03B092DE03C701B6010E94BA
:1041D000162A20E030E048EC52E40E94492CAB0162
:1041E000BC01C1010E949A106091DB037091DC0355
:1041F0008091DD039091DE030E94162A20E030E0DA
:1042000040E85AE30E94772AAB01BC01C8010E9432
:104210009A106091DF037091E0038091E103909127
:10422000E2030E94182A20E030E048EC52E40E94A9
:10423000492CAB01BC01CE01CD960E949A1018AE5C
:104240001FAA1AAE19AE1CAE1BAEBE01635C7F4F37
:10425000CE01C7960E94D810CE01C7960E94541076
:10426000B8010E9466100E945410B1010E946610AD
:10427000BC0183E198E00E94D810CE01C7960E944D
:104280002A11CE01CD960E942A11C8010E942A113E
:10429000C101BDCCA70196010E94922D29013A01CE
:1042A000440C551C661C771CE4CDC12CD12C760126
:1042B00038CE8230910509F457C1039709F006CB37
:1042C00080EC92E00E94D60B8DEB97E00E94840672
:1042D00018161906CCF583EC92E00E94D60B6DEB14
:1042E00077E0C1010E940011B10189E198E00E94CC
:1042F0000910C1010E942A116CE472E0C1010E9400
:10430000EF106BE472E0C8010E94EF10B101C80128
:104310000E94E90BC8010E942A11C1010E942A11C2
:104320006CE472E0C1010E94EF1066EC72E0C8011B
:104330000E94EF10B101C8010E94E90BC8010E9460
:104340002A11C1010E942A118DEB97E00E94840678
:10435000181619060CF025C18DEB97E00E949A06FD
:10436000F3CF8CED97E00E94D1068BE090E00E94A5
:10437000ED0A81E090E09093F6038093F5038DE5DC
:1043800096E00E94F904181619060CF0A2C482E007
:10439000B82EEE24E3948DE596E00E94F9041816F9
:1043A00019060CF0F8C28DE596E00E94D704F82EAD
:1043B0008091AD079091AE07A091AF07B091B00783
:1043C0000196A11DB11D8093AD079093AE07A093F8
:1043D000AF07B093B00744E2F41609F4BBC2E09112
:1043E000A7074F150CF4EEC05AE0F51619F06DE072
:1043F000F612BDC2EF3008F063C1F0E0EA56F84FA4
:10440000108280919507882309F468C1209196074E
:10441000822F022E000C990B3FEB320F363008F042
:10442000DEC0C7978295807F90919707292F092E2C
:10443000000C330B4FEB490F463008F0D8C0275320
:104440003109820F90919407891327C18091B90790
:104450009091BA07A091BB07B091BC070196A11D2E
:10446000B11D8093B9079093BA07A093BB07B0938F
:10447000BC078091A807882399F08091B10790919B
:10448000B207A091B307B091B4070196A11DB11D69
:104490008093B1079093B207A093B307B093B4078A
:1044A000D090A507DD2009F4ABC091E0D91234C04B
:1044B00082E397E00E94F80580E497E00E94F80507
:1044C0008091A807882341F187E0E0E2F7E0A2E1CC
:1044D000B7E001900D928A95E1F787E0E7E2F7E017
:1044E000A9E1B7E001900D928A95E1F70E942804B6
:1044F00060932E0770932F078093300790933107B6
:10450000D0921107D09210078EE497E00E94E10547
:104510008CE597E00E94E105C090AB07D090AC0716
:10452000C114D10409F4CCC0E091AB07F091AC0701
:1045300066A177A1D60196968D919C910E94043038
:10454000892B09F0BDC0B601C60140960E940D300E
:104550000E942804F60160A371A382A393A3E5A29D
:10456000E4A2C2A4D3A4DCCF8CED97E00E94840621
:104570001816190694F46CED77E0C1010E94001141
:10458000B10185E298E00E940910C1010E942A1140
:1045900084EC92E00E94D60BE7CF81EC92E00E947F
:1045A000D60B8091F5039091F6030196E4CE8DEB46
:1045B00097E00E94D10687E290E00E94ED0A82E037
:1045C00090E0D9CE7AE2F71609F414CF8CE2F81213
:1045D000CEC1809194078F25809394070BCF2156ED
:1045E000263018F4875591091DCFC0971BCF9156DF
:1045F000963018F42755310924CF2053310921CFA3
:1046000080E497E00E94F8058091A807882321F1B3
:1046100087E0E0E2F7E0A2E1B7E001900D928A9531
:10462000E1F787E0E7E2F7E0A9E1B7E001900D925A
:104630008A95E1F70E94280460932E0770932F0754
:104640008093300790933107E0921107E0921007B2
:104650008AE697E00E94E1058091820790918307A6
:10466000A0918407B091850780937E0790937F0780
:10467000A0938007B09381070E94280460937A0773
:1046800070937B0780937C0790937D07E092790776
:10469000E092780786E897E03DCF8091B50790914A
:1046A000B607A091B707B091B8070196A11DB11D3B
:1046B0008093B5079093B607A093B707B093B80758
:1046C0008091A6078F5F8093A6071092A70781E0CD
:1046D000BAE2FB1280E0809395075DCE8091A60739
:1046E000811145C068EC72E086E997E00E940430D1
:1046F000892B41F06EEC72E086E997E00E9404306D
:10470000892BF9F4E092A5078091A9079091AA0757
:104710009093AC078093AB07C090AB07D090AC07E9
:10472000C114D10469F266E977E0D60196968D91BD
:104730009C910E94043097FF3AC3F60182A593A58D
:10474000E7CF64ED72E086E997E00E940430892BA0
:1047500041F06AED72E086E997E00E940430892B0F
:1047600019F41092A507D0CFB092A507CDCFE09154
:10477000A507E23009F44AC090919607992309F4FD
:1047800045C020E2E29FF0011124E82B3197E93285
:10479000F10508F03BC08827EF52FC4D8F4F0C9479
:1047A000D32DFA233D2444244B244E247C248324FB
:1047B00090249D2406240624062406240624062488
:1047C0000624062406240624062406240624062499
:1047D0000624062406240624062406240624062489
:1047E0000624FA2337243D2444244B244E24552404
:1047F00062246F2486E997E00E943C0E609346078E
:10480000709347078093480790934907C090AB0780
:10481000D090AC07A090A607C114D10409F450CFE2
:10482000E091AB07F091AC0766A177A1D60196960F
:104830008D919C910E940430892B09F041CFF601A3
:1048400020A531A58A2D90E0821793070CF438CF6C
:104850002817390739F440E150E066E977E0C601EE
:104860000E941430D6019A96CD90DC90D3CF81E08F
:10487000913409F445C080E043C060E277E086E906
:1048800097E00E94B50DC2CF81E0933509F080E03A
:1048900080932607BBCF67E277E0F1CF81E09735C1
:1048A00009F080E080932D07B1CF86E997E00E9460
:1048B0003C0E609358077093590780935A07909362
:1048C0005B07A4CF86E997E00E943C0E60936607E1
:1048D00070936707809368079093690797CF86E97D
:1048E00097E00E941E2760933807709339078093E2
:1048F0003A0790933B078ACF81E091330CF4BBCF0A
:104900008093A80783CF86E997E00E941E276093D3
:10491000820770938307809384079093850776CFEF
:1049200086E997E00E943C0E609390077093910790
:10493000809392079093930769CF86E997E00E944E
:104940003C0E60937407709375078093760790937D
:1049500077075CCF1092A7071092A60710929407D2
:10496000B092A507109295071092A80714CDEE30CB
:1049700040F481E08E0F8093A707F0E0EA56F84FED
:10498000F08280919507811106CD80919407F826D9
:10499000F092940700CD80911107882309F499C102
:1049A0006CE472E0C8010E94EF101092330760912E
:1049B000340770913507809136079091370724E6C8
:1049C00030E040E050E00E94922D6053784FC801E3
:1049D0000E94DC0F60EE72E0C8010E94AB0D1092E5
:1049E00033076091340770913507809136079091B5
:1049F000370724E630E040E050E00E94922DCA01E3
:104A0000B90124E630E040E050E00E94922DC80158
:104A10000E94800F60EE72E0C8010E94AB0D109200
:104A20003307609134077091350780913607909174
:104A3000370720E137E240E050E00E94922D622FDC
:104A4000C8010E94800F67E972E0C8010E94AB0DA7
:104A5000109241076091420770914307809144078B
:104A60009091450720E432E44FE050E00E94922DFF
:104A7000622FC8010E94800F62EE72E0C8010E949E
:104A8000AB0D1092410760914207709143078091EE
:104A900044079091450720E137E240E050E00E9452
:104AA000922DCA01B90124E630E040E050E00E94B6
:104AB000922DC8010E94800F62EE72E0C8010E9430
:104AC000AB0D1092410760914207709143078091AE
:104AD00044079091450724E630E040E050E00E9412
:104AE000922DCA01B90124E630E040E050E00E9476
:104AF000922DC8010E94800F67E972E0C8010E94F0
:104B0000AB0D109211078091180764EC72E08111CF
:104B100002C064E572E0C8010E94AB0D109211075B
:104B20006091120770911307C8010E94DC0F61ECBD
:104B300072E0C8010E94AB0D10921107409114075A
:104B4000509115076091160770911707C8010E94D0
:104B5000AB0F67E972E0C8010E94AB0D109211071C
:104B600080911F0764EC72E0811102C064E572E07D
:104B7000C8010E94AB0D1092110760911907709146
:104B80001A07C8010E94DC0F61EC72E0C8010E94A4
:104B9000AB0D1092110740911B0750911C076091BB
:104BA0001D0770911E07C8010E94AB0F67E972E0F4
:104BB000C8010E94AB0D10924F076091540770918D
:104BC000550780915607909157070E94182A21EAAD
:104BD00032EB43E05FE30E94772A20E030E048ECCC
:104BE00052E40E94492CAB01BC01C8010E947A0D1D
:104BF00067E972E0C8010E94AB0D10925D076091F9
:104C000062077091630780916407909165072AE0BD
:104C1000A1010E945027F10101900020E9F731978E
:104C2000AF0142195309B101C8010E944E0D67E955
:104C300072E0C8010E94AB0D10925D07609162079F
:104C40007091630780916407909165070E94182A0C
:104C500020E030E048EC52E40E94492CAB01BC015A
:104C6000C8010E947A0D67E972E0C8010E94AB0D8D
:104C700010926B07609170077091710780917207B5
:104C8000909173070E94182A20E030E048EC52E42B
:104C90000E94492CAB01BC01C8010E947A0D67E952
:104CA00072E0C8010E94AB0D1092790740917E0717
:104CB00050917F076091800770918107C8010E9421
:104CC000AB0FB80187E098E00E940910C8010E946C
:104CD0002A1183E295E00E94F90418161906CCF413
:104CE00063E275E0C1010E940011B10181E098E02A
:104CF0000E940910C1010E942A1183E295E00E94DE
:104D0000F904181619062CF483E295E00E94D704E2
:104D1000F4CF86E894E00E94F90418161906CCF442
:104D200066E874E0C1010E940011B1018FE198E0D2
:104D30000E940910C1010E942A1186E894E00E9495
:104D4000F904181619062CF486E894E00E94D7049A
:104D5000F4CF0E94BC050C94481A0E94B50B803A0F
:104D600061F068EE73E080E090E00E94F6030E943C
:104D7000B50B803A11F00C945A1990E080E00E9433
:104D80002F0B60E28FE390E00E94070B6EE170E072
:104D900080E090E00E94F6030E94B50B803A11F487
:104DA0000C9461196AE070E080E090E0F3CF892B09
:104DB00009F486CC1092AC071092AB0781CCCF934C
:104DC000DF93CAE0D2E0D093BE07C093BD078DEB5E
:104DD00097E00E94BB06D093DD07C093DC078CED03
:104DE00097E00E94BB06CBE2D8E02697CE010E9456
:104DF0002A1187E0CB3FD807C1F7DF91CF91089503
:104E0000EF920F931F93CF93DF93E80134E047FDB8
:104E100034E1042E000C550B57FF03C0519541950A
:104E20005109E32E022F242FAE010E94B027CE019C
:104E3000DF91CF911F910F91EF9008951F93FC0187
:104E400099278827BC01E89411911032E9F31930B1
:104E500010F01E30C8F31B3251F01D3249F4689433
:104E600006C00E945F27610F711D811D911D119168
:104E700010531A30B0F33EF490958095709561957B
:104E80007F4F8F4F9F4F1F910895BB274A3031F4BA
:104E9000992322F4BDE2909581959F4F0C9497271A
:104EA000BB272A3051F4992342F4BDE290958095B6
:104EB000709561957F4F8F4F9F4F0C947527592F99
:104EC000482F372F262F660F771F881F991F660FD1
:104ED000771F881F991F620F731F841F951F660F0E
:104EE000771F881F991F0895BB27FA01A62F621705
:104EF000710581059105330B30FB66F0AA27660F1B
:104F0000771F881F991FAA1FA21710F0A21B639575
:104F10003850A9F7A05DAA3308F0A95DA19336F730
:104F2000B111B1931082CA010C94012ABB27FB0175
:104F30005527AA27880F991FAA1FA41710F0A41B92
:104F400083955051B9F7A05DAA3308F0A95DA193EC
:104F5000009779F7B111B1931192CB010C94012A0A
:104F60008F929F92AF92BF92CF92DF92EF92FF9279
:104F70000F931F93CF93DF9300D000D000D0CDB715
:104F8000DEB76A01F22EB02E102FFBE3AF2EA01673
:104F900008F41BE31F5F012F27E0AE014F5F5F4F57
:104FA0000E942929BC018981982F9970913009F4B8
:104FB0004EC09BE2E1FC04C09E2D9170E0FC49C014
:104FC0005E2D5071E82FE87083FF55C084E0911189
:104FD00001C083E0EF2DE81B8F1508F0E0E0D6015B
:104FE0008E2F20E25523C9F1992329F0D6019C93F5
:104FF000C60101966C0196012D5F3F4FE2FE33C062
:105000008EE4D6018C9391E411969C93119712969D
:105010008C93D9018E2F90E281112AC0E20FF32FD9
:10502000F11D10828EEF9FEF29960FB6F894DEBF28
:105030000FBECDBFDF91CF911F910F91FF90EF90E9
:10504000DF90CF90BF90AF909F908F9008959DE29A
:10505000B7CF90E2B5CF2D9381508111FCCFCE0E0A
:10506000D11CE0E0C1CF8EE6D6018C9391E6CCCF87
:105070009D938150D1CF482F447082FF3DC084E082
:10508000911101C083E08F1510F4EF2DE81BD601BC
:105090008E2F20E2552309F1992329F0D6019C9304
:1050A000C60101966C0196012D5F3F4FE2FE1BC0C9
:1050B00089E4D6018C938EE411968C93119786E443
:1050C00012968C93D9018E2F90E2882309F4A6CFF3
:1050D0009D938150FACF2D9381508111FCCFCE0E3C
:1050E000D11CE0E0D9CF89E6D6018C938EE61196EB
:1050F0008C93119786E6E4CF9B0177FF02C030E0E6
:1051000020E0A1E0B0E0911102C0B0E0A0E0F90120
:105110003196AE0FBF1F8B2C912CBB2009F461C0C0
:105120005401EFEFAE1ABE0AAA0DBB1DFA161B06FC
:1051300019F014F04F2D4A1B511188C0E3FC59C0DF
:105140007601A42FB0E2A1114FC0C40ED11C992347
:1051500009F45BC040E0D6011196F60190836D0121
:10516000552309F448C0012F060F9A81582F50711A
:1051700084FF03C0913309F4015010160CF047C0AE
:10518000093008F008E0EEE2FE2E5B01A01AB1083B
:1051900085019194819491082F3F320729F4D6011B
:1051A000FC92F60131966F016217730794F10217B2
:1051B00013077CF5DB01A21BB30BAA24A394B12C2B
:1051C000AC0EBD1EAA0DBB1D11968C91215031094C
:1051D000D601119628153905F4F0F60180836D018A
:1051E000DBCFB12CA12CA0CFF701B1937F01A1504F
:1051F000AACF9111B0CFD601942F50E302C05D9396
:1052000091509111FCCFC40ED11C40E0ACCF01E015
:10521000BACF80E3DBCF6217730731F4963388F49B
:10522000953311F4552369F0F6018083FD01842F35
:1052300090E2811108C0A40FB11D1C9290E080E0A3
:10524000F3CE81E3F1CF91938150F3CF911183CFCE
:105250008ACF283008F027E03327DA01990F311D73
:1052600087FD916000966105710539F432602E5F0B
:105270003D9330E32A95E1F708959F3F30F0803861
:105280007105610509F03C5F3C5F3D93913008F08A
:105290008068911DDF93CF931F930F93FF92EF923E
:1052A000192F987F9695E92F96959695E90FFF27E8
:1052B000EC56FD4F99273327EE24FF24A701E70181
:1052C00005900894079428F4360FE71EF81E491F2E
:1052D000511D660F771F881F991F0694A1F705902F
:1052E000079428F4E70EF81E491F561FC11D770FBB
:1052F000881F991F661F0694A1F70590079428F44C
:10530000F80E491F561FC71FD11D880F991F661F12
:10531000771F0694A1F70590079420F4490F561FB4
:10532000C71FD81F990F661F771F881F0694A9F7FC
:1053300084911095177041F0D695C795579547956C
:10534000F794E7941A95C1F7EAE3F2E068941590B0
:10535000159135916591959105907FE27395E118CE
:10536000F10A430B560BC90BD009C0F7E10CF11E33
:10537000431F561FC91FD01D7EF4703311F48A9548
:10538000E6CFE894015030F0080F0AF40027021726
:1053900008F4202F2395022F7A3328F079E37D93A8
:1053A0002A95E9F710C07D932A9589F6069497957A
:1053B0006795379517951794E118F10A430B560B2B
:1053C000C90BD00998F023957E9173957A3308F034
:1053D00070E37C932013B8F77E9170617D9330F079
:1053E000839571E37D9370E32A95E1F71124EF90A3
:1053F000FF900F911F91CF91DF91992787FD909595
:105400000895DC01FC01672F71917723E1F7329752
:1054100004C07C916D9370836291AE17BF07C8F38F
:1054200008950E94532A08F481E00895E89409C081
:1054300097FB3EF490958095709561957F4F8F4FC7
:105440009F4F9923A9F0F92F96E9BB279395F695DD
:10545000879577956795B795F111F8CFFAF4BB0F5B
:1054600011F460FF1BC06F5F7F4F8F4F9F4F16C0BF
:10547000882311F096E911C0772321F09EE8872F49
:10548000762F05C0662371F096E8862F70E060E005
:105490002AF09A95660F771F881FDAF7880F96957E
:1054A000879597F90895990F0008550FAA0BE0E822
:1054B000FEEF16161706E807F907C0F012161306D6
:1054C000E407F50798F0621B730B840B950B39F416
:1054D0000A2661F0232B242B252B21F408950A267C
:1054E00009F4A140A6958FEF811D811D08950E94AA
:1054F0008A2A0C94FB2A0E94ED2A38F00E94F42A92
:1055000020F0952311F00C94E42A0C94EA2A11243B
:105510000C942F2B0E940C2B70F3959FC1F3950FC9
:1055200050E0551F629FF001729FBB27F00DB11D27
:10553000639FAA27F00DB11DAA1F649F6627B00DB7
:10554000A11D661F829F2227B00DA11D621F739FA0
:10555000B00DA11D621F839FA00D611D221F749FAE
:105560003327A00D611D231F849F600D211D822FF5
:10557000762F6A2F11249F5750409AF0F1F088231C
:105580004AF0EE0FFF1FBB1F661F771F881F915049
:105590005040A9F79E3F510580F00C94E42A0C94EA
:1055A0002F2B5F3FE4F3983ED4F38695779567956C
:1055B000B795F795E7959F5FC1F7FE2B880F911D73
:1055C0009695879597F9089597F99F6780E870E019
:1055D00060E008959FEF80EC089500240A94161669
:1055E000170618060906089500240A9412161306D1
:1055F000140605060895092E0394000C11F488235F
:1056000052F0BB0F40F4BF2B11F460FF04C06F5F7A
:105610007F4F8F4F9F4F089557FD9058440F551F50
:1056200059F05F3F71F04795880F97FB991F61F024
:105630009F3F79F087950895121613061406551F9B
:10564000F2CF4695F1DF08C0161617061806991F07
:10565000F1CF86957105610508940895E894BB27FC
:1056600066277727CB0197F908950E94402BA59FC5
:10567000900DB49F900DA49F800D911D112408954D
:10568000A29FB001B39FC001A39F700D811D112483
:10569000911DB29F700D811D1124911D08955058C8
:1056A000BB27AA270E94672B0C94FB2A0E94ED2A95
:1056B00038F00E94F42A20F039F49F3F19F426F4C0
:1056C0000C94EA2A0EF4E095E7FB0C94E42AE92F07
:1056D0000E940C2B58F3BA176207730784079507CB
:1056E00020F079F4A6F50C942E2B0EF4E0950B2EF9
:1056F000BA2FA02D0B01B90190010C01CA01A00124
:105700001124FF27591B99F0593F50F4503E68F17E
:105710001A16F040A22F232F342F4427585FF3CFBF
:10572000469537952795A795F0405395C9F77EF490
:105730001F16BA0B620B730B840BBAF09150A1F0D9
:10574000FF0FBB1F661F771F881FC2F70EC0BA0F5F
:10575000621F731F841F48F4879577956795B795E7
:10576000F7959E3F08F0B0CF9395880F08F09927E2
:10577000EE0F9795879508959F939F77EEE389376E
:105780009E0728F4E4EEF0E00E94022D0CC00E9477
:10579000BB2C9058A2EA2AED3FE049EC5FE30E945F
:1057A000672B0E94FB2A0F9007FC905808950E94D7
:1057B000ED2A60F080E891E009F49EEF0E94F42A5F
:1057C00028F040E851E071F45EEF0CC00C94EA2A36
:1057D0000C942E2BE92FE0780E940C2B40F3092E1D
:1057E000052AB1F3261737074807590738F00E2E58
:1057F00007F8E02569F0E025E0640AC0EF6307F8E8
:10580000009407FADB01B9019D01DC01CA01AD0179
:10581000EF930E94602C0E94FB2A0E941A2C5F9139
:10582000552339F02BED3FE049E450FD49EC0C9451
:10583000502B0895DF93DD27B92FBF7740E85FE352
:105840001616170648075B0718F4D92F0E941B2D60
:105850009F938F937F936F930E94692DE8EFF0E001
:105860000E94DB2C0E94FB2A2F913F914F915F9168
:105870000E948A2ADD2351F09058A2EA2AED3FE0E7
:1058800049EC5FE3D0785D270E94672BDF910C9491
:10589000FB2A0E945D2C0C94FB2A0E94F42A58F0EB
:1058A0000E94ED2A40F029F45F3F29F00C94E42A8D
:1058B00051110C942F2B0C94EA2A0E940C2B68F3A4
:1058C0009923B1F3552391F3951B550BBB27AA27B9
:1058D00062177307840738F09F5F5F4F220F331FF3
:1058E000441FAA1FA9F335D00E2E3AF0E0E832D0BB
:1058F00091505040E695001CCAF72BD0FE2F29D0BE
:10590000660F771F881FBB1F261737074807AB078F
:10591000B0E809F0BB0B802DBF01FF2793585F4F04
:105920003AF09E3F510578F00C94E42A0C942F2B0A
:105930005F3FE4F3983ED4F3869577956795B795E6
:10594000F7959F5FC9F7880F911D9695879597F9F1
:105950000895E1E0660F771F881FBB1F621773076A
:105960008407BA0720F0621B730B840BBA0BEE1F7F
:1059700088F7E0950895DF93CF931F930F938B01E2
:10598000EC01E5E2F1E00E94DB2C0E94FB2A980189
:10599000AE018B01EC0160E070E080E89FE30E94C3
:1059A0004F2B0E94292D9801AE010F911F91CF918D
:1059B000DF910C948A2ADF93CF931F930F93FF926A
:1059C000EF92DF927B018C01689406C0DA2EEF0122
:1059D0000E948A2AFE01E894A5912591359145916E
:1059E0005591A6F3EF010E94672BFE019701A801D4
:1059F000DA9469F7DF90EF90FF900F911F91CF91AC
:105A0000DF9108959F938F937F936F93FF93EF930D
:105A10009B01AC010E94772AEF91FF910E94DB2C41
:105A20002F913F914F915F910C94772A0E94532AB6
:105A300008F48FEF08959B01AC0160E070E080E80E
:105A40009FE30C94492C19F416F40C94EA2A0C9454
:105A50006D2D0E94142BB8F39923C9F3B6F39F5709
:105A6000550B87FF0E947B2D0024A0E640EA9001A1
:105A700080585695979528F4805C660F771F881F8D
:105A800020F026173707480730F4621B730B840B8E
:105A9000202931294A2BA6951794079420253125D2
:105AA0004A2758F7660F771F881F20F026173707F9
:105AB000480730F4620B730B840B200D311D411D20
:105AC000A09581F7B901842F9158880F96958795F5
:105AD00008959B01AC010C94772A9F3F31F09150BF
